:1000000000000320D1010000ED1C0000A51C000031
:10001000A51C0000A51C0000A51C0000A51C0000DC
:10002000A51C0000A51C0000A51C0000ED1C000084
:10003000ED1C0000A51C0000193800001D3900004F
:10004000ED1C0000ED1C0000ED1C0000ED1C00008C
:10005000ED1C0000ED1C0000ED1C0000ED1C00007C
:10006000ED1C0000ED1C0000ED1C0000ED1C00006C
:10007000ED1C0000ED1C0000ED1C0000ED1C00005C
:10008000ED1C0000ED1C0000ED1C0000ED1C00004C
:10009000ED1C0000ED1C0000ED1C0000ED1C00003C
:1000A000ED1C0000ED1C0000ED1C0000ED1C00002C
:1000B000ED1C0000ED1C0000ED1C00002D3E0000BA
:1000C000ED1C0000593F0000ED1C000085400000C1
:1000D000ED1C00007D410000ED1C0000ED1C000047
:1000E000ED1C0000ED1C0000ED1C0000551500008B
:1000F00045160000ED1C0000ED1C0000ED1C00008A
:10010000093A00001D3A0000313A0000453A00006B
:10011000ED1C000009280000ED1C0000ED1C000093
:10012000ED1C0000ED1C0000ED1C0000ED1C0000AB
:10013000ED1C0000ED1C0000ED1C0000ED1C00009B
:10014000ED1C0000ED1C000075420000ED1C0000DD
:10015000ED1C0000ED1C0000ED1C0000ED1C00007B
:10016000ED1C0000ED1C0000ED1C0000ED1C00006B
:10017000ED1C0000ED1C0000ED1C0000ED1C00005B
:10018000ED1C0000ED1C0000ED1C0000ED1C00004B
:10019000ED1C0000ED1C00006D430000ED1C000094
:1001A000ED1C0000ED1C0000ED1C0000ED1C00002B
:1001B000ED1C0000ED1C0000ED1C0000ED1C00001B
:1001C000ED1C0000ED1C0000ED1C0000ED1C00000B
:1001D0005C4B4CF2205210B51A804DF628121A8052
:1001E00000BF00BF01F086FD574B4FF030621A6030
:1001F000564A9A60564ADA60564B4FF470021A60BB
:10020000554B564A1A60564B1A78110703D51A787F
:1002100042F008021A70534B5349AA221A70534AEB
:10022000534B8B4204D252F8040F43F8040BF8E707
:10023000504B514900228B4202D243F8042BFAE77B
:100240004E494F4A002352F8230041F8230001335E
:10025000742BF8D14B4B4C4A802103F8011B93427D
:10026000FBD14A4B454A1A60494B8A221A70A3F5C2
:10027000805324225A70A0221A709A799207FCD5D2
:100280009A79D406FCD4434A937903F00C03082BE3
:10029000FAD1414B60221A7002331A78802AFCD1BD
:1002A0003C4B01221A715D225A719A799006FCD555
:1002B0009979384A4906FBD5384B394919600021EC
:1002C000596020231370937903F00C030C2BFAD19F
:1002D000344B354A1A60354A354C136813F4807331
:1002E00003D123604FF4A8531360324B324A1A6093
:1002F00000225A60072243F8042C304AC3F80C2D20
:1003000062B602F0F1F82368DA0705D52C4801F04F
:1003100025FE2C4B2C4A1A602C4B1B785B0609D50A
:10032000284C294B22689A4204D1254801F016FE38
:100330000023236005F0D0FD01F0E2FC03F08CFB0C
:10034000FEE700BF0E20054030800440823F0400DD
:100350000100002B88ED00E0002008E0030000858C
:1003600002D0074000E00740DC12FF1FFC6F0000D6
:100370003007FF1FE012FF1F841AFF1F0002FF1F3C
:100380000000000000E400E064E400E008ED00E0AC
:10039000005006400040064001E007404480044011
:1003A0000000060204800440C010070010D0034083
:1003B00014D0034014E000E01FBF02000000202022
:1003C000938E635E1CE00340A5C3945A00F007407F
:1003D000FFFFFFFFFFFFFFFFFFFFFFFFFFFFFFFF2D
:1003E000FFFFFFFFFFFFFFFFFFFFFFFFFFFFFFFF1D
:1003F000FFFFFFFFFFFFFFFFFFFFFFFFFFFFFFFF0D
:10040000FFFFFFFFFFFFFFFFFFFFFFFFDEF9FFFF23
:1004100010B5054C237833B9044B13B10448AFF33E
:1004200000800123237010BDE012FF1F00000000B8
:1004300000700000084B10B51BB108490848AFF325
:1004400000800848036803B910BD074B002BFBD0A0
:10045000BDE81040184700BF00000000E412FF1F75
:1004600000700000DC12FF1F0000000008B5054B03
:10047000054800221A7000F0B7FA0448BDE80840A9
:1004800000F0B2BA0815FF1FE813FF1F0013FF1F8B
:1004900010B5044603F096FA204610BD08B50121B8
:1004A000152001F0C9FF00211C2001F0C5FF022228
:1004B0000E491C2001F0D6FC00210C2001F0BCFFED
:1004C00000210B2001F0B8FF0021182001F0B4FF3B
:1004D0000021192001F0B0FF00211A2001F0ACFF2B
:1004E00000211B20BDE8084001F0A6BF6D040000FC
:1004F00008B52DED028B9FED098A0620B0EE480A63
:1005000001F0EEFEB0EE480A082001F0E9FEBDEC75
:10051000028B0C20BDE8084001F0D2BE00409C4692
:1005200010B502F0DBFF002811DD02F09BFF124B3B
:10053000124CC0B218701B78732B09D009211048D7
:1005400002F0F6FF0F4803F08FFA0023237010BD6E
:100550002378002BF2D109210B4802F0E9FF09486A
:1005600003F082FA0123094A2370127802B910BD00
:10057000074A137010BD00BF4015FF1F0815FF1F6D
:10058000D4680000EC09FF1FC86800004C15FF1F6D
:10059000F014FF1F30B52DED048B314B9FED319AD8
:1005A000DFED318A9FED318A314A324985B000252D
:1005B000802418461D601C7105F07CFC4FF47A7491
:1005C0002D4A2E4B0192B0EE491AF0EE680AB0EEB9
:1005D000480A009302942A4B2A480822072100F077
:1005E00097FE0A230C221621274800F00DFAB1EEDF
:1005F000000A00F087FC254B93ED000A0246B8EE96
:10060000400A0121224801F095F8224A224B01922A
:10061000B0EE491AF0EE680AB0EE480A0093029470
:100620001E4B1F480622052100F0E2FA09230C2286
:1006300017211C4800F0E8F9B1EE000A00F062FC56
:10064000194B93ED000A0246B8EE400A1748012103
:1006500005B0BDEC048BBDE8304001F06BB800BFC5
:100660004415FF1F6F12033DBC74133F77BE9F3FBD
:100670000C08FF1F91040000F814FF1F3815FF1F1E
:100680003015FF1FE813FF1FA815FF1F1408FF1FD9
:10069000D014FF1F0015FF1FE814FF1F1015FF1FC8
:1006A0000013FF1F5015FF1F1008FF1F1815FF1F15
:1006B00008B50C2001F0CAF9FFF7F0FEFFF718FFAC
:1006C000084800F01FFE084800F08CFA0749084867
:1006D0004EF65F2203F02CF9064B00200021C3E9FF
:1006E000000108BDE813FF1F0013FF1FBD07000036
:1006F0004415FF1F0016FF1F38B5284B284C294D05
:1007000093ED000B2046022103F006FA0121284652
:1007100002F00EFF244800F017FF0146204603F0C8
:10072000F3F90121284602F003FF204800F0D8F930
:1007300010EE100A05F022F841EC100B02212046C1
:1007400003F0EAF9204603F08FF9194B204693EDA8
:10075000000B022103F0E0F90121284602F0E8FE37
:10076000144800F061FB0146204603F0CDF9012159
:10077000284602F0DDFE104800F0B2F910EE100A33
:1007800004F0FCFF41EC100B2046022103F0C4F9F9
:100790002046BDE8384003F067B900BFF814FF1FDA
:1007A000EC09FF1FE0680000E813FF1FA815FF1FFA
:1007B0000015FF1F0013FF1F5015FF1F264B1A784F
:1007C00010B552B9254A12783AB1254800F00CF913
:1007D0002448BDE8104000F007B91B78002B31D049
:1007E000214B1B78002B2ED11C4B204C2048012282
:1007F0001A70D4E9002312F57A7243F10003C4E9B8
:100800000023D4E90023114600F0AAFFD4E9002315
:10081000184B1948114683ED000B00F0A1FF174B50
:10082000174883ED000B00F02DF9164800F02AF967
:100830000B4800F055FE0B4800F0C2FABDE810402E
:10084000FFF75ABF10BD0121054800F0D9F801217A
:10085000044800F0D5F8C7E70815FF1F4C15FF1F27
:10086000E813FF1F0013FF1FF014FF1F0016FF1FE8
:10087000D014FF1FF814FF1F1815FF1F0015FF1FCE
:10088000A815FF1F5015FF1F2DE9F0432C4D89B00F
:10089000044640F8185B98468DED070A109F119E9C
:1008A000BDF84890CDED020A8DED041A00F048F92C
:1008B0009DED041A11EE100A04F060FFDDED020A4E
:1008C000CDE9040110EE900A04F058FF9DED070AEF
:1008D000CDE9020110EE100A04F050FF04F12005EA
:1008E0004FF0000E41EC100B9DED042B33463A46C1
:1008F0004146CDF800E09DED021BCDF8049028465E
:1009000000F05AFB28469FED0A1B9FED0B0B84F865
:10091000109000F04DFC2846012100F093FC204689
:10092000C4F80480A760E66009B0BDE8F08300BFAA
:100930000000000000FEAF400000000000FEAFC05D
:10094000EC680000FFFFFFFF70B50446203000F0A8
:1009500083FBA16800220023D1E9000105F0D4F94E
:1009600004F1180688BB3046012100F009F9A3689C
:10097000D3E90045002200232046294605F0E2F98C
:10098000F8B1002200232046294605F0BDF908BB36
:1009900013A3D3E900232046294605F0D3F948B92B
:1009A0002946204605F016FA81B23046BDE870406F
:1009B00000F0D4B8304640F6FF71BDE8704000F05A
:1009C000CDB805F100431D46DBE73046002100F0BD
:1009D000D7F8CCE730460021BDE8704000F0BEB843
:1009E0000000000000FEAF4010B50446183000F0D3
:1009F000C3F804F120000021BDE8104000F022BC43
:100A0000203000F01FBC00BF2DE9F04104460F4626
:100A1000002198460D4616460C30402205F044FD54
:100A20003846294684F80280277084F84C5084F8B0
:100A30004D5001F001FD2946A07801F0FDFC102089
:100A400001F038F83046667001F000F86278DFEDAA
:100A50000B6A9FED0B7A01239340013B9BB207EE9B
:100A6000903AF8EE677A204627EE877A67EEA67A04
:100A700084ED017AC4ED027ABDE8F081CFCCCC3DA3
:100A80006666663F38B50446007801F051F894F880
:100A90004D20236D80B204EB4201A4F854008D89EF
:100AA00088810132D2B25B1B18441F2A206584F86A
:100AB0004D2009D90022012384F84D2084F84C30C0
:100AC0004009A4F8560038BD94F84C30002BF7D1FB
:100AD000B0FBF2F0A4F8560038BD00BFFFFFFFFFE7
:100AE00010B5044684B0406804F048FECDE9020128
:100AF000A06804F043FECDE90001B4F8560004F00C
:100B00001BFE9DED022B9DED001B9FED094B9FED04
:100B10000A3B41EC100B00F08DF951EC100B05F085
:100B200079F900EE100A04B010BD00BFAFF30080E9
:100B30000000000000003E400000000000003EC039
:100B400010B50446427001700846012101F074FCA2
:100B50006078012101F070FC204610BD38B50446D4
:100B60000D460078A17801F061FC29466078BDE867
:100B7000384001F005BA00BF0021FFF7EFBF00BF0A
:100B800081707047C36C1B6830B4036672B6C16B6A
:100B9000C36D0524C0220C601A6062B6C568446843
:100BA000C369C16D00222A602568056622601C6841
:100BB0000466102501241D60426680F868400A68BA
:100BC00012F0010F426AC06C14BF4FF4C0444FF4DE
:100BD00020441460C125402450220D6004601A6036
:100BE00030BC704708B57830FFF7CCFF08BD00BFB8
:100BF0002DE9F04F85B0DFF844A10E9C0F9EBDF8A3
:100C0000405000940196029504460546FFF73CFECD
:100C10004248434B45F8783BC4F89800C4F89C0020
:100C20005430C4F8B800C4F8BC001030C4F8C00098
:100C3000C4F8C4003B4B3C493C4A3D4EDFF80081C0
:100C4000DFF800E1DFF800C13A4FDFF800B1C4F887
:100C500090200430C4F8C800C4F8CC0040F21279E7
:100C60000830C4F89420C4F88010C4F884101D60C3
:100C7000C4F878E0C4F87CE0C4F8A0C0C4F8A4C00C
:100C8000C4F8B080C4F8B480C4F8D000C4F8D4006C
:100C9000C4F88860C4F88C60C4F8A870C4F8AC705C
:100CA000CAF800904FF0040A0023CBF80090C8F86F
:100CB00000A04FF005094FF0220B4FF6FF7AC8F85D
:100CC00000900B6033601360CCF80030CEF8003039
:100CD00040F808BC3B60C6F800A00B600B660F4BE9
:100CE0004FF0C10C4FF0400E4FF010094FF4C048C8
:100CF000C2F800902846C3F80080C3F870C0C3F85B
:100D000064E0FFF73FFF2846FFF73CFF0A4B4FF434
:100D1000006220461A6005B0BDE8F08F10900340D5
:100D2000006900000816FF1F049003400C90034068
:100D3000089003404C90034004E100E030900440F0
:100D400054900340009003401490034034900440BA
:100D500072B643681A68520617D4C268126892B213
:100D6000B2F5804F0DD3B2F5404F22D890F86810FD
:100D700011B11B68190604D5C36D1B68C3F340038A
:100D8000BBB1436E981862B6704762B6C3684268DA
:100D90001B68416E1268520605D590F869209BB217
:100DA0001AB1C8187047406E7047A1F580301844DA
:100DB0007047436EA3F58033981862B6704700BF42
:100DC000F8B545680446D5E9000104F0DBFF0746A5
:100DD00004F17800FFF7BCFF04F0BEFC6668C5E9CB
:100DE0000001384604F0B8FC0B460246D6E9000183
:100DF00004F064FB05F00EF8237CDFED0A6A07EED1
:100E0000103A06EE100AB8EE477A2046C6EE077A88
:100E100067EEA67AFDEEE77AC4ED057ABDE8F84004
:100E2000FFF792BD0024744908B57830FFF790FFB2
:100E300008BD00BF2DE9F04357EC116B85B011EEF2
:100E4000102A51EC100B3B4655EC134B8DED002B4B
:100E50008DED024B04F032FB9DED024B804689463E
:100E6000224651EC140B2B4604F028FB02460B469D
:100E70004046494604F0D6FC9DED002B804689464D
:100E8000324651EC120B3B4604F018FB02460B466F
:100E90004046494604F0F0FD22462B4604F010FB84
:100EA00041EC100B05B0BDE8F08300BF00B52DED9F
:100EB000028B10EE900A85B0B0EE608A8DED030AC9
:100EC00004F05CFC9DED030ACDE9000110EE100A70
:100ED00004F054FC9DED001B41EC100B03F050FBA3
:100EE00051EC100B04F096FF00EE100AB5EEC00AAC
:100EF000F1EE10FAB8BF38EE000A05B0BDEC028B77
:100F00005DF804FBDFED047A20EE270AFCEEC07AE0
:100F100017EE900A704700BF00247449FFFFFFFFDF
:100F20002DE9F0470C99003118BF01218246017765
:100F3000006C9046994604F0FFFB1DA3D3E9002303
:100F400004F09AFDDDE90823CAE9008904460D464C
:100F500004F068FC06460F462B462246CAE90267A3
:100F6000DDE90A0104F088FDDAF8183004460D4680
:100F7000012BCAE9044517D142464B460020002107
:100F800004F09CFA3246CAE900013B4600200021E9
:100F900004F094FA2246CAE902012B4600200021FF
:100FA00004F08CFACAE90401BDE8F087AFF30080D1
:100FB0000000000080842E412DE9D04F2DED048BE0
:100FC000B0EE418AF0EE618AB0EE429AF0EE629A9B
:100FD000044686B00FF2780BDBE900AB59EC108BBE
:100FE0004262002600270020BDF84C20A362129B1D
:100FF000216260772264A361C4E914ABC4E912677B
:1010000032463B4610EE100A494604F07DFEC0B958
:1010100032463B4651EC180B04F076FE88B9324656
:101020003B4651EC190B04F06FFE50B901218DEDD8
:10103000029B8DED008B42464B4604912046FFF704
:101040006FFF204606B0BDEC048BBDE8D08F00BF1B
:101050000000000000FEAF402DE9F04F457F89B051
:10106000002D00F08380026A836A92ED007B59ECC8
:10107000178B044617EE102AD3E900014B468DED7D
:10108000007B04F01BFAD4E90E2306460F464046C7
:101090004946CDE9046704F011FAD4E902238146F8
:1010A0008A4630463946CDE9029A04F0BBFBD4E9C2
:1010B0000C2304F005FA94F81C8006460F46C4E998
:1010C0000C67B8F1000F0FD1D4E900234846514610
:1010D00004F0A8FB02460B463046394604F0EEF910
:1010E00006460F46C4E90C67D4E914AB32463B46CA
:1010F0005046594604F008FE00283BD0C4E90CAB2A
:1011000056465F46B8F1000F49D0DDE90401D4E945
:10111000002304F087FB80468946D4E90423DDE9F7
:10112000020104F07FFB02460B463046394604F0CC
:10113000C5F942464B4604F0C3F906460F4602463F
:101140000B465046594604F0DFFD40B9D4E912ABD6
:101150003046394652465B4604F0D6FD20B39DED3D
:10116000007B636AC3E900AB84ED0E7B284609B0BF
:10117000BDE8F08F94ED127B32463B4651EC170BE5
:101180008DED067B04F0DEFD0028BBD09DED067BD7
:1011900084ED0C7B57EC176BB8F1000FB5D14FF015
:1011A00000084FF00009B8E7B246BB46D7E700BFDA
:1011B0002DE9F84F57EC106B55EC114B824611EEB0
:1011C000102A2B4610EE100A394604F0B1FD002813
:1011D00030D19AF81D30CAE91267CAE914454BB3F9
:1011E000DAF824B0DBE900892046294642464B461E
:1011F00004F08AFD00BB42464B463046394604F0B7
:10120000A1FD18B1CBE90067DAE91445DAE90C670A
:1012100022462B463046394604F094FD40B9DAE9BF
:1012200012453046394622462B4604F06DFD08B182
:10123000CAE90C45BDE8F88FCBE90045DAE9144569
:10124000E4E700BF01292DE9F84304460CBF01255E
:10125000002502D06577BDE8F883437F002BF9D1E4
:10126000426A036AD2E90067C0E90C67D0E91489D1
:10127000D3E900233046C4E90E23394642464B46A3
:1012800004F060FD48B9D4E9128930463946424637
:101290004B4604F039FD0028DCD0C4E90C896577A1
:1012A000BDE8F883C36C1B6830B4036672B6C16BCB
:1012B000C36D0524C0220C601A6062B6C56844681C
:1012C000C369C16D00222A602568056622601C681A
:1012D0000466102501241D60426680F868400A6893
:1012E00012F0010F426AC06C14BF4FF4C0444FF4B7
:1012F00020441460C125402450220D6004601A600F
:1013000030BC704708B57830FFF7CCFF08BD00BF90
:101310002DE9F04F85B0DFF844A10E9C0F9EBDF87B
:10132000405000940196029504460546FFF7ACFA3A
:101330004248434B45F8783BC4F89800C4F89C00F9
:101340005430C4F8B800C4F8BC001030C4F8C00071
:10135000C4F8C4003B4B3C493C4A3D4EDFF8008199
:10136000DFF800E1DFF800C13A4FDFF800B1C4F860
:1013700090200430C4F8C800C4F8CC0040F21269D0
:101380000830C4F89420C4F88010C4F884101D609C
:10139000C4F878E0C4F87CE0C4F8A0C0C4F8A4C0E5
:1013A000C4F8B080C4F8B480C4F8D000C4F8D40045
:1013B000C4F88860C4F88C60C4F8A870C4F8AC7035
:1013C000CAF800904FF0040A0023CBF80090C8F848
:1013D00000A04FF005094FF0220B4FF6FF7AC8F836
:1013E00000900B6033601360CCF80030CEF8003012
:1013F00040F808BC3B60C6F800A00B600B660F4BC2
:101400004FF0C10C4FF0400E4FF010094FF4C048A0
:10141000C2F800902846C3F80080C3F870C0C3F833
:1014200064E0FFF73FFF2846FFF73CFF0A4B4FF40D
:10143000805220461A6005B0BDE8F08F10800B4046
:10144000146900000C16FF1F04800B400C800B4039
:1014500008800B404C800B4004E100E048A00440B1
:1014600054800B4000800B4014800B404CA0044083
:1014700072B643681A68520617D4C268126892B2EC
:10148000B2F5804F0DD3B2F5404F22D890F86810D6
:1014900011B11B68190604D5C36D1B68C3F3400363
:1014A000BBB1436E981862B6704762B6C3684268B3
:1014B0001B68416E1268520605D590F869209BB2F0
:1014C0001AB1C8187047406E7047A1F580301844B3
:1014D0007047436EA3F58033981862B6704700BF1B
:1014E000F8B545680446D5E9000104F04BFC074611
:1014F00004F17800FFF7BCFF04F02EF96668C5E937
:101500000001384604F028F90B460246D6E90001EE
:1015100003F0D4FF04F07EFC237CDFED0A6A07EEC3
:10152000103A06EE100AB8EE477A2046C6EE077A61
:1015300067EEA67AFDEEE77AC4ED057ABDE8F840DD
:10154000FFF702BA0024744908B57830FFF790FF1E
:1015500008BD00BF3A4B1B685A681168C02930B4F7
:101560002FD0022183F86B1093F8681041B11168F5
:1015700009064BBF0021012183F8681083F8691028
:1015800093F86810B1B1D9694020106008681866F6
:101590005A6A502008601168B1F5C04F33D0282432
:1015A00002204FF4C04183F86B4083F86A00116059
:1015B00030BC7047D96D0968C1F3400183F86910E8
:1015C000E1E7D86900210125502483F86B5083F8A6
:1015D00068101160046093F86A20022A5A6A1DD0CC
:1015E00064204FF4204183F86B00116093F8692068
:1015F000002ADDD1652283F86B205A6EA2F5803275
:101600005A6630BC70471E2483F86B4001204FF4AB
:10161000204183F86A0030BC116070476E204FF49F
:10162000C04183F86B00116093F86920002ABFD095
:101630006F2283F86B205A6E02F580325A66B7E744
:101640000816FF1F3A4B1B685A681168C02930B44E
:101650002FD0022183F86B1093F8681041B1116804
:1016600009064BBF0021012183F8681083F8691037
:1016700093F86810B1B1D969402010600868186605
:101680005A6A502008601168B1F5C04F33D0282441
:1016900002204FF4C04183F86B4083F86A00116068
:1016A00030BC7047D96D0968C1F3400183F86910F7
:1016B000E1E7D86900210125502483F86B5083F8B5
:1016C00068101160046093F86A20022A5A6A1DD0DB
:1016D00064204FF4204183F86B00116093F8692077
:1016E000002ADDD1652283F86B205A6EA2F5803284
:1016F0005A6630BC70471E2483F86B4001204FF4BB
:10170000204183F86A0030BC116070476E204FF4AE
:10171000C04183F86B00116093F86920002ABFD0A4
:101720006F2283F86B205A6E02F580325A66B7E753
:101730000C16FF1F07EE902AF8EE676A9FED077AF6
:101740000170C6EE877A10B40024846042605DF8B0
:10175000044B80ED040AC0ED037A704700247449FD
:1017600083688B4216D2C91A07EE901A03789FED50
:101770002C7AF8EE677A012B10B587EE870A0446BB
:101780000ED033D3022B08D1006903F0F7FF41ECF0
:10179000100B10BD9FED200B70479FED1F0B10BD70
:1017A000D0ED030AF5EE007AA0EEE70AFFF77EFB24
:1017B000D4ED036A94ED047AF6EE007AA6EEE70A19
:1017C000F1EE007A67EE277AB5EEC00A87EEA66AD8
:1017D000F1EE10FAD8BFB1EE400A90EE067A17EE9D
:1017E000100A03F0CBFF41EC100B10BD90ED037A13
:1017F000DFED0C6AC6EE877A27EE800A02F076FEED
:10180000D4ED047A60EE277A17EE900A03F0B6FF63
:1018100041EC100B10BD00BF0000000000000000F4
:1018200000247449DB0FC940374A384913681B0646
:10183000FCD40B6813F08003F8D172B634490A78EF
:10184000002A5FD0334A3448F0B4344C1768066835
:101850002568D4680C303E44143200681268304F5A
:1018600035442C4420440244C2F34E022D4E2E48EF
:101870002E4D2F4C42F400423A60376806682D68BE
:101880002C4A24680C303E44006812682A4F3544C4
:101890002C4420440244C2F34E02284E2848294DCD
:1018A000294C42F400423A60376806682D68274A9E
:1018B00024680C303E4400681268254F35442C449F
:1018C00020440244C2F34E02224E2348234D244CAE
:1018D00042F400423A60376806682D68214A24685D
:1018E0000C303E440068126835442C4420440244C5
:1018F000C2F34E021C4842F4004202600B7062B612
:10190000F0BC704762B6704724B0034024B00B406F
:101910001116FF1F38B003403CB0034040B00340F5
:101920002CB0034058B003405CB0034060B00340AB
:1019300064B003406CB0034030B0034038B00B409B
:101940003CB00B4040B00B4044B00B404CB00B409F
:101950002CB00B4058B00B405CB00B4060B00B405B
:1019600064B00B406CB00B4030B00B4030B4294831
:10197000294A2A4B2A4D6024E121047011701B78FA
:10198000284C082B30D00A2B2748284937D00C2B5D
:101990000CBF35225D2212232A60236002600B6097
:1019A000234B24491B78244ABBB101230B601360ED
:1019B000224B23491B78234A012B26D9042B0FD90C
:1019C000082B1ED9102B94BF862387230B6013602E
:1019D0001D4B01221A7030BC70470B601360E7E7A3
:1019E00084230B601360F3E700F58E200F49083065
:1019F000212213232A60236002600B60D0E7392282
:101A0000F7E785230B601360E2E780230B60136028
:101A1000DEE700BF00400740014007401808FF1FF5
:101A200008B003400CB0034008B00B400CB00B40B2
:101A30001416FF1F20B0034020B00B401908FF1FF1
:101A400024B0034024B00B401116FF1F0C2830B403
:101A500017D91023984228BF18461C46104A114D2A
:101A60001178181A8C42287018D00F4913700B780F
:101A700023B10E490E4A00230B60136030BCFFF700
:101A800075BF0A2802D90C231C46E7E7082802D9AB
:101A90000A231C46E2E708231C46DFE730BC7047F8
:101AA0001808FF1F1016FF1F1116FF1F24B0034058
:101AB00024B00B4010B51A4B1B780446BBB9012C5F
:101AC00019D9042C174B18490AD9082C20D9102CE5
:101AD00017D907221A600A60144A2023137010BD18
:101AE00004221A6013460A60104A137010BDFFF7F3
:101AF0009BFE012CE5D80B4A002313600B4A1370A0
:101B000010BD06221A600A60084A1023137010BD27
:101B100005221A600A60054A0823137010BD00BF31
:101B20001116FF1F24B0034024B00B401908FF1FFB
:101B300047282FD8334B2DE9F0411E5CFF2E2BD0C8
:101B4000314B1B78002B2AD132062CD472B62F4D84
:101B50002F4C2F46012326602B7062B672B6236885
:101B60001B060CD43B781BB9F4E72B78002BF1D083
:101B700062B602F0C3F872B623681806F5D5254B95
:101B80001B6800222A7062B6234A107843FA00F0DC
:101B9000BDE8F081002070470020BDE8F081FFF72C
:101BA00043FE3206D2D572B61C4DDFF87C801C4C49
:101BB00006F04007FFB206F03F06D8F80030DFB16C
:101BC00023F01003C8F8003001232660134A2B705D
:101BD00062B672B6236819060CD413781BB9ECE709
:101BE0002B78002BE9D062B602F088F872B6236831
:101BF0001B06F5D50B4BC3E743F01003C8F80030C4
:101C0000E2E700BF206900001116FF1F1316FF1F37
:101C100000B0034010B003401016FF1F1216FF1F44
:101C200000B00B4010B00B400CB00B400A4A0B49FF
:101C3000136843F4805313600B7843B9084BC022F8
:101C40001A70084B80F30C0000B218807047044BE8
:101C500080221A70F5E700BF2C8004401416FF1F85
:101C600021C00C4000C00C400A4A0B49136843F4E1
:101C7000005313600B7843B9084BC0221A70084B0D
:101C800080F30C0000B218807047044B80221A7059
:101C9000F5E700BF2C8004401416FF1F21D00C4034
:101CA00000D00C4008B5104C08E0236859050DD44D
:101CB00023681A050FD42368DB0411D42368580362
:101CC000F3D500F0A1FD23685905F1D502F0AEF877
:101CD00023681A05EFD502F03FF92368DB04EDD540
:101CE00002F0D0F9EAE700BF3480044008B5FFF7FE
:101CF000D9FF00BF014B10221A8070470020054019
:101D0000704700BF094908B50B6830B16A461844EE
:101D1000A2F50052904202D20860184608BD04F0B5
:101D2000D5F80C2303604FF0FF3008BD1C08FF1FDF
:101D3000FEE700BF084A1378802B01D000207047CF
:101D40000649074B07480860002119701378802B5B
:101D5000FCD00120704700BF03E0074044800440EE
:101D600001E0074000002822094A1378012B01D026
:101D70000020704703F1804303F5FC2360211970B4
:101D80001378802BFCD1034B034A1A600120704763
:101D900003E007404480044000000602704700BF93
:101DA00010B4114B53F8302092F8804234B1012323
:101DB00079B182F880305DF8044B704703EBC003C3
:101DC0005B681A6851B922F002021A605DF8044B90
:101DD000704782F800315DF8044B704742F003020F
:101DE0001A605DF8044B7047686900001C4A02EBFA
:101DF000C00301295B6811D004291BD052F83000C0
:101E0000002280F8802229B1022920D0032922D083
:101E10001A6070474FF480721A60704752F83000B1
:101E20004FF4A27280F880121A601A6822F0200221
:101E30001A60704752F830104FF4A272012081F8F6
:101E400080021A601A6842F020021A60704740F25D
:101E500003121A6070474FF481721A60704700BF16
:101E6000686900003F2848D8F8B5042A44D8DFE85C
:101E700002F0484B4E0345004FF410262B4B03EB6A
:101E8000C0030D465C68216811F4E06148D0284B1E
:101E9000284A2949C3F82C2104F140422748C3F8B5
:101EA0003411A2F59221264FC3F830017C29254830
:101EB000C3F83871C3F83C012CD9A2F594237C2BCC
:101EC0002AD9A2F596237C2B28D9A2F598237C2B1E
:101ED00029D9A2F59A227C2A27D81B4872B62368F2
:101EE00023F4702343F08072C4F38401164323600B
:101EF00040F82150266062B6F8BD70474FF4302696
:101F0000BCE74FF40026B9E74FF44026B6E74FF49C
:101F10002026B3E70D48E1E70D48DFE70D48DDE790
:101F2000FFF764FFB3E70C48D8E7F8BD6869000025
:101F30000002FF1FE107FF1F8907FF1FB507FF1FF3
:101F40005D07FF1F3107FF1F6809FF1F2008FF1FE4
:101F50009808FF1FF808FF1F2809FF1F30B4054B22
:101F6000054D064C002210211A602A60206019607D
:101F700030BC704714D0034004D0034000D003406D
:101F800038B5A0F14203012B044624D900297ADD9B
:101F9000994B1B78012505FA03F28A4202D83F28A3
:101FA0002CD938BDC21E012A30D9A0F11D02012A48
:101FB00078D90E285BD9A4F12302032A5CD9A4F1B5
:101FC0001002012A94BF8D4A8D4A126802FB011249
:101FD00022FA03F320E0884B1B780B2B0AD90C2B39
:101FE0001CBF0C3B1941422C084657D0BDE8384075
:101FF000FFF73ABEC3F10C039940F4E72946FFF717
:10200000CFFE2946BDE83840FFF7F0BE7D4A126892
:1020100002FB011222FA03F3A21E242A00F2E3803B
:10202000DFE812F0DA00D300CC00C500BE00B70034
:10203000B000A900A200E100E100E1009B00E10086
:1020400094008D00E100E10086007F0078007100BF
:10205000E100E100E100E100E1006A006300E1006D
:10206000E100E100E1005C0055004E00470044F251
:102070008412C240D2079ED5634A126802FB011245
:1020800022FA03F3C8E73F288BD80021FFF788FE28
:1020900020460121BDE83840FFF7A8BEBDE8384022
:1020A000FFF7C4BD594A126802FB011222FA03F37A
:1020B000B2E75749574A0B604FF45173136038BD6C
:1020C0005549564A0B604FF45173136038BD54495B
:1020D000544A0B604FF45173136038BD5249534A50
:1020E0000B604FF45173136038BD5149514A0B6076
:1020F0004FF45173136038BD4F49504A0B604FF491
:102100005173136038BD4E494E4A0B6040F2444350
:10211000136038BD4C494D4A0B6040F24443136094
:1021200038BD4B494B4A0B6040F24443136038BD05
:1021300049494A4A0B6040F24443136038BD48495C
:10214000484A0B6040F24463136038BD4649474A31
:102150000B6040F24463136038BD4549454A0B604B
:1021600040F24443136038BD4349444A0B6040F297
:102170004443136038BD4249424A0B6040F2444335
:10218000136038BD4049414A0B6040F2444313603C
:1021900038BD3F493F4A0B6040F24443136038BDAD
:1021A0003D493E4A0B6040F24443136038BD3C4910
:1021B0003C4A0B6040F24443136038BD3A493B4A05
:1021C0000B604FF45173136038BD3949394A0B60C5
:1021D0004FF45173136038BD3749384A0B6040F2F1
:1021E0004443136038BD3F2C3FF6DBAE7F29D4BF9C
:1021F00000210121204649E7D409FF1F08900C4027
:10220000088003400890034008900B4008800B4072
:1022100048900B402CB0044040900B4028B0044044
:1022200038900B4024B0044030900B4020B0044064
:1022300018800B404CA0044010800B4048A0044084
:102240001880034008B004401080034004B00440EC
:102250004080034018C004403880034014C004404C
:1022600018900C4004A0044010900C4000A00440C2
:1022700018900B4004C004402880034010B0044074
:10228000208003400CB0044028900B400CC0044058
:1022900020900B4008C004403080034010C0044030
:1022A000488003401CC00440189003403490044010
:1022B000109003403090044010900B4000C0044048
:1022C00038B1102828BF1020044AC3B21078137008
:1022D0007047024A0123107813707047D409FF1F1A
:1022E000A0F11001C9B2012970B45BD9DFED3B7ACE
:1022F0003B4AB4EEE70AF1EE10FA47F6122346BF66
:102300001A4602250125DFED376A002322FA03F47D
:1023100007EE904AF8EEE77A27EEA67AB4EEC70AFF
:10232000F1EE10FA07DA0133072BEFD1D20907EEED
:10233000902AF8EEE77A87EE807A4FF6FF74C21E95
:10234000F6EE007A77EE677AFCEEE77A17EE906A9F
:10235000A64228BF2646012A344637D917280ED967
:10236000A0F11D02012A35D90E281ED923380328D1
:1023700020D9012914D81C4A1C4E1D481DE01D4AB5
:10238000C24002F0010282F00106002AE8D01A4A97
:102390001A481B49166043EAC50306600C601360C7
:1023A00070BC7047174A0125ADE744F28412C24061
:1023B000D207DBD5144A154E154843EAC503002160
:1023C000116031600460136070BC7047114A124E96
:1023D0001248F2E7124A134E1348EEE7C0E1E44018
:1023E000008793030000803700900C4004900C405D
:1023F00008900C406006F000008003400480034019
:10240000088003400024F40000900B4004900B402F
:1024100008900B4000900340049003400890034054
:1024200000800B4004800B4008800B403F2801D8FF
:10243000FFF7B6BC704700BF3F2801D8FFF7D6BCF6
:10244000704700BF2DE9F843054672B6224F234B73
:10245000234A1B683C68126862B6520102D5322BCF
:1024600088BF0134B5B3C3F52F3303F21F331D4EBC
:10247000DFF86890DFF868809B084FF47A72A6FB5B
:10248000031302FB04F404EB930472B6D9F80010B2
:102490003A68D8F800E062B6C1F52F3303F21F3373
:1024A0009B08A6FB03031EF0806FC4EB93034FF45D
:1024B0007A7002D0322988BF013200FB0233B3F5B3
:1024C0007A7F04D3013D05D004F57A74DDE701F08D
:1024D00015FCDAE7BDE8F8831816FF1F18E000E0E6
:1024E00004ED00E0176CC116F8B54E4B4E48DFF80E
:1024F0005CC14E4C4E49DFF858E14E4E4E4D4F4FA9
:102500004FF000621A604FF080521A604FF0005294
:102510001A604FF080421A604FF000421A600022A9
:10252000026028234EF6FF70CCF80000CEF8003091
:1025300023600EF5012E0B6033602B6006F500263C
:102540003B6005F50025A36207F500278B6204F5C3
:10255000012401F5012106F6E87605F6E87507F590
:102560007F6710310EF1100E203433602B60CEF8EF
:1025700000303B600B602360314CBB618B610921F3
:102580002160A7F5002704F58054203F08343A6005
:102590002060BB60E36047F8041C04F5FD2407F5E8
:1025A000FE27043704F2FC7422603860A360FB60ED
:1025B00044F8041C083404F6FC74C7F8FC2F2060AF
:1025C000A4F5E124A4F2DC7433602B60C7F8F81F93
:1025D00021681C4841F40071216001681A4C0EF515
:1025E0007F4E0EF1E80E07F5883706F5803605F5C3
:1025F000803541F000710160CEF8002047F6FF7190
:102600000822396033602B602260FFF7AFF9192090
:10261000FFF718FF00F060FE40F21310BDE8F8402D
:10262000FFF710BF04E100E0048003401480034082
:102630001C800340248003402C80034034800340EE
:10264000008003400480044000900C400880034058
:102650000C800340431E032B14D872B60A4951F86C
:10266000230068B170B4094C058834F8132046681B
:1026700041F82360521B24F8132062B670BC7047E7
:1026800062B67047002070477416FF1F6C1AFF1F58
:10269000013803280BD872B6074B53F8203043B1EA
:1026A00000205B680130002BFBD162B67047002030
:1026B00070471846F9E700BFC816FF1F30B472B65E
:1026C0002B4A13781D0706D52A4B196A002936D0E4
:1026D000996A002941D053781C0706D5254B196CFF
:1026E00000293ED0996C002939D09378190705D577
:1026F000204B196E002936D0996E89B1D3781B070B
:1027000007D51C4BD3F880207AB3D3F88820112149
:102710003AB162B6184B00221A7030BC00F07CBE91
:102720000D21154C154D227843F8315003EBC103B0
:102730000830013A5860227062B630BC70470422FB
:102740000D4C0F4D217843F8325003EBC203083093
:102750004A1E5860227062B6EFE70521E1E70921C1
:10276000DFE70822ECE70C22EAE71022E8E700BFE7
:10277000A06B00000000FF1FF116FF1FC800400003
:1027800088004000431E032B1DD81B4A400140F027
:10279000100030B4104472B6184CE25C032A1BD807
:1027A000DFE802F00212151703220D88E25410F040
:1027B000080F14BFC823882343EA05430831036088
:1027C000416062B630BC704708300222EDE7052256
:1027D000EBE708300422E8E7094A52F8230038B151
:1027E000084A52F82300416042F8231062B6E9E734
:1027F00042F82310034AF7E70000FF1F0017FF1FEE
:10280000C816FF1FD816FF1F2DE9F04FDFF80CB3D5
:10281000DFF80CA387B044E0AB4F4FEA930807EB17
:10282000C809013ED9F8042003F00803F6B2A2F16A
:10283000080003F0FF04002B40F0028157F8383005
:102840001B0C99B222F8081C002B00F0F0809F4B63
:1028500022F8064C42F8044C53F82620002A00F0D7
:10286000C5829B4D55F8263058609A4C45F8260095
:1028700034F81630194424F8161000F0ADFD002885
:1028800000F0AD82944A954B19F0080F00F1080052
:1028900018BF1346C9F8040047F8383008238BF8EE
:1028A00000309BF80040E4B261071AD58C4B1B78CE
:1028B000A3B18C490A7802F0FF0322B1013BDBB2DD
:1028C0000B7003B900BE88490A7802F0FF032AB1F1
:1028D000013BDBB20B70002B00F0578204238BF816
:1028E000003004F0080303F0FF02002B00F0CC805E
:1028F0009AF80030DBB21E098ED19C08DFF8C8912F
:1029000059F8342009EBC401C2F38302013A496843
:102910000C2A00F28880DFE802F07C7C86868686BE
:1029200086864786868607000868704D4A68704F1D
:10293000704E286081B240F28160674B6A604FF050
:10294000010E0022814249F834303A60C9F8102063
:10295000C9F8182086F800E05B4C00F2E380B1F57E
:10296000D06F80F04683B1F5817F00F0FC8200F2E9
:102970008D82802900F07783822940F0FA82A9882D
:1029800001F07F01042900F2F4825B485B4C89006E
:102990000844227062700278930740F1588484F8EA
:1029A00000E04FF0020E42E3514F3A6832B3544B0D
:1029B000504E5449188834780D784028864645F0A2
:1029C000020828BF4FF0400E002C84F00104347040
:1029D000CEEB00000CBF8824C82409EBC80680B2E7
:1029E00085F0010544EA0E447260188049F83840C9
:1029F00072440D70002800F045813A603B4B1A8804
:102A0000B2F5A06F0FD100219A7859703E4B1A7021
:102A100009E0364A108842F22102904200F03781E4
:102A20002D4A49F83420394A0123137036E72A4ADF
:102A30002A4B19F0080F18BF134647F838302DE716
:102A400000F0EAFC324A334952F82630002B00F0FD
:102A5000D18158688C5D42F8260003F10802C9F85C
:102A60000420032C05D8DFE804F02C0229260222DA
:102A70008A551A8819F0080F0CBF8823C82343EA27
:102A8000024347F8383009E7E00700F18181210669
:102A900000F1F281A20706D51F4A204913780220CF
:102AA000DBB213700870E30602D51C4B10221A70BB
:102AB00007B0BDE8F08F04228A55DAE705228A556F
:102AC000D7E703228A55D4E70000FF1F7416FF1FC3
:102AD0002016FF1F6C1AFF1FC8004000880040002E
:102AE000FC16FF1F8516FF1F0417FF1FE816FF1FA8
:102AF0001C16FF1F8416FF1FC0200740F416FF1F7F
:102B00003016FF1FF016FF1F982007409420074043
:102B1000C816FF1F0017FF1F8820074080200740AE
:102B20009020074042F22100814200F02A8100F209
:102B3000D880B1F5086F00F07682B1F5106F40F0E3
:102B40001882226AB349A8780870120600F13A8305
:102B5000D9F82820B049130600F10C83D9F83020A9
:102B6000AD49150600F10183D9F83820AA491406A9
:102B700000F1F682D9F84020A749100600F14A83F7
:102B8000D9F84820A449120600F13F83D9F8502013
:102B9000A149130600F13483D9F858209E4915063F
:102BA00000F12983D9F860209B49140600F11E83A7
:102BB000D9F868209849100600F11383D9F87020DD
:102BC0009549120600F10883D9F878209249130636
:102BD00000F1FD82D9F880208F49150600F131837C
:102BE000D9F888208C49140600F12583D9F8902063
:102BF0008949100600F11983D9F8982086491206F0
:102C000000F10D838548864A864901908648874DA4
:102C1000874C049700230596029580460F4616467A
:102C20001D460394306828B1446800F0F5FB204647
:102C3000002CF9D100233360029B38681A46002328
:102C400042F8253028B1446800F0E6FB2046002C0D
:102C5000F9D100223A60019A98F80030114600221A
:102C600041F8042B039A0191023B4FF0000122F836
:102C70001510032B00F22B81DFE813F07001250102
:102C800070012501BEF1400F18BF0022B5E6694A68
:102C90000D784878157050708D78C8789570D07020
:102CA00010680D79157186284D7989795571917162
:102CB00000F09B816049614E0A78307882F001050E
:102CC000002842F002020D700CBF8821C82149F88B
:102CD000321009EBC20280F0010000213070516017
:102CE0009EE642F22120814240F0CB81544B554C6C
:102CF0005549A8781D682560CDF804E008700020CB
:102D000002908046844604464B490D7845F0020EF9
:102D100009EBCE030393019B002B039B5C600CBF6C
:102D20008824C82444EA080385F0010449F83E30A9
:102D300032700C70DFF8E0E0404BDFF8FC800028D8
:102D400040F01E81BCF1400F1BD144F0020C09EB96
:102D5000CC03029CDFF8C0E05C60002A40F02681D2
:102D6000020442F088029DF804304EF83C200444EE
:102D700033700D702346402803D10020334A3B6056
:102D80001080334A012313704DE600F0B1FCA5E535
:102D9000214B2F4828491A614FF0020E80F800E0BD
:102DA0002C4F0A702C49196099602C4E2C4D2D4CDB
:102DB0009A610D213970FF213170DFF8B8E0297078
:102DC0002270294D294A8EF800109F27012406F809
:102DD000047C5D600470DA6007B0BDE8F08F244ABF
:102DE00047F8380013780133137057E543F826008D
:102DF0000E4D3AE58B5D032B00F2F08001A252F8F4
:102E000023F000BF9D2800009D280000C12E000077
:102E1000BB2E0000FC16FF1F0000FF1FD816FF1F6F
:102E20007416FF1FC816FF1F0017FF1F2016FF1F75
:102E30006C1AFF1F741AFF1FF016FF1F8416FF1F66
:102E40001816FF1F7C1AFF1F1417FF1F3016FF1FD5
:102E500094200740C0200740880040008820074099
:102E600080200740982007403416FF1F8816FF1F58
:102E7000F116FF1F8C200740C149C24B80220D2054
:102E800008701A70A2077FF50EAE05E640F2023216
:102E9000914240F0EE80A98801F07F01042968D8B2
:102EA0006A88002A65D1B648CDF804E08900084454
:102EB000017841F00201017021E701238B55EDE417
:102EC00000238B55EAE44FF0010388F80030013508
:102ED000042D06F1040607F1040708F101087FF448
:102EE000A1AEA94CA94B2278A94D049F059E0021B3
:102EF00029701A70130700F105816278A549DFF87F
:102F0000A0820A7010074FF00001C9F83010C9F80C
:102F1000381000F1E080A049A2780A700021C9F8B9
:102F20005010C9F858101107DFF8748200F10181C0
:102F3000E2789A499A4C0A7000211207C9F8701079
:102F4000C9F8781000F1B08033780193002183F044
:102F50000102C9F89010C9F89810D0E64FF00003AC
:102F600088F80030B3E7A98801F07F01042940F216
:102F70008D80834A0F2313708A4A0123137052E510
:102F800040287FF6E2AE44F002040EEBC401029E3C
:102F90004E60BAB19DF80410834A19703346403828
:102FA00088F8005040334EF83420E7E69DF80430AE
:102FB00033700204029B0D7042F0C80203444EF8C5
:102FC0003C20D8E69DF804101970029B774A88F8D7
:102FD0000050403840334EF83420CFE619F0080F47
:102FE0000CBF022303238B5558E4714A0F21117043
:102FF00060E6704A5468002CBBD06888B5F804E0DD
:1030000003E00C325468002CB3D013888342F8D10B
:1030100053887345F5D1000A03280CBF94F800E0EB
:10302000B2F808E003E0644A644C12782270E88841
:10303000704580F03F8162490D784028844645F014
:10304000020E28BF4FF0400C04EB0C0309EBCE023C
:10305000029301235460CCEB00004FEA0C4800229D
:103060000193C8245EE6554C4FF0020E2270627048
:10307000DDE7B1F5A06F7FF47CAF0123002201935F
:103080003DE642F221329142F7D072E76A88002A87
:103090007FF46FAF3A48CDF804E089000844017826
:1030A00021F0020101702AE600F096F9002800F0F4
:1030B000EF8008303D4AC4F88400C4F8802000F056
:1030C0008BF9002800F0DE800830374AC9F88C0000
:1030D000C9F8882038E700F07FF9002800F0C080A8
:1030E0000830324AC8F84400C8F8402000F074F9AB
:1030F000002800F0AF8008302B4AC9F84C00C9F80E
:10310000482008E700F068F9002800F0CD8008307A
:10311000264AC9F82400C9F8202000F05DF90028EB
:1031200000F0BC800830204AC9F82C00C9F82820DB
:10313000E3E600F051F9002800F09E8008301B4AB9
:10314000C8F86400C8F8602000F046F9002800F0D4
:103150008D800830144AC9F86C00C9F86820E7E689
:10316000C86B083800F058F904E5486B083800F0DF
:1031700053F9F9E4C86A083800F04EF9EEE400BFEC
:10318000C020074080200740A06B0000C4200740FB
:10319000F116FF1FC8200740CC200740D020074071
:1031A0000000FF1F94200740C80040008800400036
:1031B0008516FF1FA46B0000FC16FF1FF416FF1FEF
:1031C000F016FF1F606A083800F026F9C0E4C86FE7
:1031D000083800F021F9FDE4486F083800F01CF9C8
:1031E000F2E4C86E083800F017F9E7E4486E0838D2
:1031F00000F012F9DCE4C86D083800F00DF9D1E4F4
:10320000486D083800F008F9C6E4C86C083800F0CA
:1032100003F9BBE4486C083800F0FEF8B0E4D1F8DC
:103220009C00083800F0F8F8ECE4D1F89400083875
:1032300000F0F2F8E0E4D1F88C00083800F0ECF887
:10324000D4E4D1F88400083800F0E6F8C8E44FF080
:10325000020EECE62A78C9F8480001322A705AE6D4
:103260002A78C8F8400001322A703FE72A78C9F866
:10327000680001322A705BE62A78C8F860000132E3
:103280002A7061E72A78C9F8880001322A705BE663
:103290002A78C4F8800001322A7010E72A78C9F829
:1032A000280001322A7028E62A78C9F82000013265
:1032B0002A7032E7BEF1400FF44628BF4FF0400CB1
:1032C00004EB0C0302930123CCEB0E004FEA0C48F5
:1032D0000022019318E500BF2DE9F04101F0B8F894
:1032E000314C324B3248DFF8E480324EDFF8E0C038
:1032F000314F324DDFF8DCE000221A605A609A60EC
:10330000DA601A615A619A61DA611A625A629A62E3
:10331000DA621A635A639A63DA631A645A649A64C3
:10332000DA641A655A659A65DA651A665A669A66A3
:10333000DA661A675A679A67DA67C3F880202168E5
:10334000C3F8842041F480212160016841F040717C
:103350000160032188F80010A020C3F307218CF836
:10336000000004F528343170C3F307401449387065
:103370001B0E2B70CC34FF238EF80030114D0CF84F
:10338000B83C11480B70012306F8083C22707026E7
:103390004FF40014102207F82C3C2E70046081F8C2
:1033A000F820BDE8F08100BF348004400000FF1F1A
:1033B00000D800409C200740B0200740B4200740C0
:1033C0001020074035E400E004E100E0442107401C
:1033D000402107408020074072B60D480268B2FACB
:1033E00082F30B2B10DC4FF00041D94022EA01029E
:1033F000026062B6074803EBC303DB00C21800217A
:10340000C15010465160704762B60020704700BF3F
:10341000D809FF1FD003FF1F0D4B0E4AC31AA2FB92
:1034200003231B090B2B0CD80B4A127852B972B626
:103430000A484FF00041026821FA03F31A43026080
:1034400062B67047064A1278002AF0D0FFF736B904
:10345000D003FF1F398EE338F116FF1FD809FF1F75
:10346000FC16FF1F38B50F4D286878B143880288D5
:10347000C118013393420C7A02D24380204638BDF2
:10348000FFF7CAFF002320462B6038BD064B1B7890
:103490002BB10320FFF7DEF828600028E6D14FF0BB
:1034A000FF3038BD1017FF1FFC16FF1F10B5094C69
:1034B000206818B143881844007A10BD064B1B7869
:1034C0002BB10320FFF7C6F820600028F2D14FF09F
:1034D000FF3010BD1017FF1FFC16FF1F044B054ADD
:1034E0001B6890881BB11A885B88D31A18447047F0
:1034F0001017FF1F6C1AFF1F0B4B1B789BB110B5E9
:103500000A4C206848B1FFF787FF0023032023609F
:10351000FFF7A0F830B1FFF77FFF0320FFF79AF81D
:103520000028F8D110BD7047FC16FF1F1017FF1FB1
:103530002DE9F04FDFF8F89083B0012289F80020E0
:10354000019169B3DFF8EC80354F019E8346D8F8CE
:103550000000B0B3334D4488C4F14001B14228BFEC
:10356000314604EB010E00221FFA8EFE2A70761AF5
:10357000A0F802E000F1080251B1013C2244594494
:103580001BF8014B02F8014F8B45F9D1B0F802E06E
:10359000BEF13F0F0BD8244A05211170002ED6D161
:1035A0000198002389F8003003B0BDE8F08F402275
:1035B000028001460420FFF7E5F80022C8F8002049
:1035C000E9E73A7822B3194C164D4FF0010A07E0AB
:1035D000013C16D02A78A2B900F090FB3A78BAB133
:1035E0000420FFF755F80728F2D889F800A0FFF764
:1035F000F3FEC8F800000028ADD10D4B013C187057
:10360000E8D101234FF0FF302B7003B0BDE8F08FFD
:1036100000234FF0FF3089F8003003B0BDE8F08F91
:10362000FC16FF1F0C17FF1F0417FF1F2148010086
:103630000517FF1F0817FF1F00B583B002AB01215C
:1036400003F8010D1846FFF773FF03B05DF804FBA4
:1036500038B50E4D0E4C28680123237028B14088E0
:1036600000232370C0F1400038BD0A4B1B7813B90A
:103670000020207038BD0420FFF70AF80728F7D88B
:10368000FFF7AAFE28600028E9D1F1E70817FF1F1D
:103690000517FF1FFC16FF1FF8B5114B1B788BB1E8
:1036A000104E114D346801272F7064B10F4A6388A2
:1036B00000271770214623800420FFF763F8376046
:1036C00000232B70F8BDFFF787FE084B28B1014699
:1036D00004201C70FFF756F8F2E71F70F0E700BFF8
:1036E000FC16FF1F0817FF1F0517FF1F0417FF1FFA
:1036F00038B50E4B1B7873B90D4C216861B103F0DE
:10370000FF054B880B800420FFF73CF8256038BD8F
:10371000084B01221A7038BDFFF75EFE0028F7D073
:103720000146BDE838400420FFF72CB80517FF1FFD
:103730000817FF1F0417FF1F10B4EFF3108272B6B3
:10374000437F33B9017F012908D0032910D0012319
:10375000437702B962B65DF8044B7047114C21689B
:10376000A1B1114943610B68836108605861EEE7BC
:103770000E4C216881B10E4943610B68836108607A
:1037800058610C4B4FF080511960E0E7064B4161E6
:10379000816120601860DAE7054B4161816120603A
:1037A0001860EEE72817FF1F2417FF1F1817FF1FC9
:1037B0001C17FF1F04ED00E010B4047F4160022CD1
:1037C000C26003D05DF8044BFFF7B6BF83685DF8B5
:1037D000044B184770B5EFF3108272B60C4C20689A
:1037E00080B10C4E00254369236073B19D6102B91D
:1037F00062B6457783689847EFF3108272B6206807
:103800000028F0D102B962B670BD3360EFE700BFA7
:103810001817FF1F1C17FF1FFFF7DCBF184A30B433
:103820001468002C27D0036821688B420ED2CB1A73
:1038300000218460C1602360E06010600223037592
:1038400030BC704711688B42144608D3A2685B1ADB
:103850000360002AF6D18260C460A060EEE7D268FF
:10386000C2608460E060C568CB1A0222A860236051
:10387000027530BC70478460C4601060DEE700BF32
:103880002017FF1FF8B5224E34682CB32368002B95
:103890003AD1204F1D4604E03468ECB12368002B78
:1038A00032D1A36803B1DD602069336003682575F8
:1038B0001B68BB4221D1037F4560022BC46020D02E
:1038C000FFF73AFF6368002BE6D023602046FFF73E
:1038D000A5FF3468002CE1D1EFF3108372B60E4AD5
:1038E00000211068116003B962B628B18468FFF73F
:1038F00095FF20460028F9D1F8BD224600219847BF
:10390000E0E783689847DDE7013B2360E4E700BF19
:103910002017FF1FB93700003017FF1F024A136836
:1039200001331360FFF7AEBF1816FF1F704700BFCB
:103930000368F0B4FBB1002501249D60DC601B4CE2
:103940001A601C44241104F130056A110326920008
:103950009E60174F0679174B47F8241002F160421A
:1039600002F5614205F01F05012000FA05F5E65455
:103970001560F0BC7047104C236843F400032360CB
:1039800000BF0E4B0E4DA4F58734A4F59E7401269E
:103990001E60234604609C68002CD0D01033AB42DC
:1039A0000360F8D1002303601846E2E7008FFCBFF4
:1039B000DC09FF1F30E400E03C800440007003405D
:1039C000407103400168A9B10B4BF0B40B441B11CB
:1039D0000A4E0B4F0B4D46F8237003F1300202F0F4
:1039E0001F0401235211A340002445F822308C60AB
:1039F0000460F0BC704700BF008FFCBFDC09FF1FF4
:103A00002D39000080E100E0024A034B01211160E2
:103A10001B6818470C710340DC09FF1F024A034B67
:103A2000012111605B6818471C710340DC09FF1F0E
:103A3000024A034B012111609B6818472C71034017
:103A4000DC09FF1F024A034B01211160DB681847A4
:103A50003C710340DC09FF1F08B5FCF729FEFCF7A9
:103A60005FFD00F04BF9FAE700B5064A03681288DB
:103A70005B6883B001A9ADF804200222984703B027
:103A80005DF804FB686B0000F0B507468BB0002AB8
:103A900033D0012A08BF0A2251B3212400E0F4B236
:103AA000B1FBF2F502FB1511C8B2092900F1300192
:103AB00098BFC8B20AA988BF3730214488BFC0B2B6
:103AC00001F8240C661E2946002DE8D133B1013CD3
:103AD000E4B20AAB23442D2203F8242C3B6801AA4C
:103AE00011195B683846C4F1220298470BB0F0BD4B
:103AF00030228DF825202124E8E70368C9B21B682D
:103B000098470BB0F0BD00BF0029BABF49422D2332
:103B100000230A22FFF7B8BF2DE9F04357EC106BE2
:103B200085B005460C4610EE102A3B4610EE100AF2
:103B3000394602F011F9002840F0B28027F0004920
:103B4000304649464FF0FF32594B02F005F990B923
:103B5000304649464FF0FF32554B02F0DFF850B97E
:103B60002B6854495B6828460322984780464046A4
:103B700005B0BDE8F0834FF060424F4B3046394608
:103B800002F0E0F8002872D14FF060424B4B304613
:103B9000394602F0B9F8002869D1002200233046E6
:103BA000394602F0B1F8002864D18146002C67D074
:103BB000434900204FF000083BA3D3E9002308F15C
:103BC000010801F02FFE5FFA88F39C42F4D8024608
:103BD0000B463046394601F073FC0F46064602F0AC
:103BE000F9F8804601F0A8FD02460B4630463946FA
:103BF00001F064FC4B4606460F460A224146284621
:103C0000FFF742FF0F2C28BF0F2404F101092E23D8
:103C100080465FFA89F98DF8003001240022294B93
:103C20003046394601F0FEFD0F46064602F0D2F856
:103C300004AB2344C0B200F1300203F8102C01F0B1
:103C40008BFD02460B463046394601F037FC013405
:103C5000E4B24C4506460F46E0D12B6822465B682D
:103C6000284669469847404605B0BDE8F0832B6872
:103C7000154977E707F100431F464FF0010995E723
:103C800000220F4B3046394601F01AFC02F0A2F830
:103C90004B4601460A222846FFF7F6FE804666E7B5
:103CA0002B680A495EE700BF000000A09999B93F60
:103CB000FFFFEF7F746B0000FFFFEF41FFFFEFC1DD
:103CC0000000E03F00002440706B00006C6B0000BF
:103CD000FFF712BCFFF7EABBFFF7C4BBFFF7FEBB61
:103CE000FFF7DABCFFF7B4BC08461146FFF720BC6B
:103CF0000846FFF7A1BC00BF704700BF38B52C4C89
:103D0000237803B138BD01232370FFF7E7FB0028B8
:103D100042D100F07BF800283BD100F00DF90028DB
:103D200034D100F09FF970BB00F018FA40BB00F0EE
:103D300091FA10BB00F00AFBE0B900232370EFF307
:103D40000583002BDED1EFF3108172B6194B186892
:103D500028B3194C227812BB45691D6001232370DA
:103D60000DB3AA6101B962B600254577836898470B
:103D70002570C7E700F0B8FBDFE700F0B3FBD9E739
:103D800000F0AEFBD3E700F0A9FBCDE700F0A4FB09
:103D9000C7E700F09FFBC0E7FFF7AEFFB9E70029D8
:103DA000B0D162B638BD054B1D600029DCD1DAE721
:103DB0003417FF1F2817FF1F2C17FF1F2417FF1F83
:103DC000F0B44D1E2E46002400E00134B0FBF2F3A7
:103DD00002FB1300092800F130078ABF3730F8B220
:103DE000C0B206F8010F1846002BEED10A19537025
:103DF0004CB1107815F8016F28700133E01A834236
:103E000002F80169F5DB0846F0BC7047054A064B2D
:103E100010781B78C0B2DBB2984238BF4030C01A6D
:103E2000704700BF3C17FF1F3D17FF1FF0B4384B12
:103E30001A7912F0300F2CD072B6997D01F0FF0282
:103E400000293DD062B6334F334938780D78334E70
:103E50001C46C0B2EDB2431C402BE17928BF0023C1
:103E6000AB4202F1FF32C9B21CBFF154184612F046
:103E7000FF02F0D12A4B1B68C2B23A704BB1A84284
:103E800036BFC5F14005401B40192728C4BF012299
:103E90001A701F49CA78D2B2150616D452060DD52B
:103EA0001B4B1B795B0609D51E4B1F491B68002263
:103EB0000A7003B11A70164B3C22DA70F0BC7047DE
:103EC0004022D9795A7462B6E3E70B791C06E5D52E
:103ED000164B174E1C783378E4B2DBB29C420ED0FE
:103EE000144D01E0A3420AD00133402B28BF002328
:103EF0000879E85CC0B2C871087D0728F2D9DBB246
:103F0000034933700B79180644BF7C23CB70C5E797
:103F100000A006403C17FF1F3D17FF1F8017FF1F23
:103F20003817FF1FC417FF1FC017FF1FC817FF1F39
:103F3000C117FF1F4017FF1F054A064B10781B785B
:103F4000C0B2DBB2984238BF4030C01A704700BFE1
:103F50003C18FF1FD117FF1FF0B4384B1A7912F02D
:103F6000300F2CD072B6997D01F0FF0200293DD0B0
:103F700062B6334F334938780D78334E1C46C0B2A1
:103F8000EDB2431C402BE17928BF0023AB4202F184
:103F9000FF32C9B21CBFF154184612F0FF02F0D133
:103FA0002A4B1B68C2B23A704BB1A84236BFC5F16A
:103FB0004005401B40192728C4BF01221A701F4921
:103FC000CA78D2B2150616D452060DD51B4B1B79F2
:103FD0005B0609D51E4B1F491B6800220A7003B1FE
:103FE0001A70164B3C22DA70F0BC70474022D97927
:103FF0005A7462B6E3E70B791C06E5D5164B174EEB
:104000001C783378E4B2DBB29C420ED0144D01E050
:10401000A3420AD00133282B28BF00230879E85C8B
:10402000C0B2C871087D0728F2D9DBB203493370EA
:104030000B79180644BF7C23CB70C5E700B006405F
:104040003C18FF1FD117FF1FFC17FF1FCC17FF1FC6
:104050004018FF1FD017FF1F4418FF1F3D18FF1FF8
:10406000D417FF1F054A064B10781B78C0B2DBB28D
:10407000984238BF4030C01A704700BF4C18FF1F2D
:104080004D18FF1F30B42B4B1A7994061FD52A48C0
:10409000DA790378294901333F2B0978C8BF002317
:1040A0008B42D2B203D0264CD9B2E2540170254AD9
:1040B000116861B1244A1278D2B2934236BFC2F17C
:1040C00040029B1A9B18272BC4BF01230B70194A6F
:1040D000D378DBB2180611D45A060DD5154B1B79CF
:1040E0005B0609D5194B1A491B6800220A7003B1F7
:1040F0001A70104B2C22DA7030BC70471179090607
:10410000EAD5144910480C780178C9B28C420DD018
:104110004A1C272A84BF00210A460F4D054C98BF30
:10412000D1B2AA5CD2B2E2710170D5E76C21D17034
:10413000D2E700BF00C006404C18FF1F4D18FF1FFC
:104140007818FF1F4818FF1FB918FF1FBC18FF1F62
:10415000B818FF1FC018FF1F5018FF1F054A064B55
:1041600010781B78C0B2DBB2984238BF4030C01A1A
:10417000704700BFC818FF1FC918FF1F30B42B4B72
:104180001A7994061FD52A48DA7903782949013328
:104190003F2B0978C8BF00238B42D2B203D0264CF4
:1041A000D9B2E2540170254A116861B1244A1278EB
:1041B000D2B2934236BFC2F140029B1A9B18272B02
:1041C000C4BF01230B70194AD378DBB2180611D48F
:1041D0005A060DD5154B1B795B0609D5194B1A49A3
:1041E0001B6800220A7003B11A70104B2C22DA707F
:1041F00030BC704711790906EAD5144910480C788B
:104200000178C9B28C420DD04A1C272A84BF0021F4
:104210000A460F4D054C98BFD1B2AA5CD2B2E271EA
:104220000170D5E76C21D170D2E700BF00D0064005
:10423000C818FF1FC918FF1FF418FF1FC418FF1F5D
:104240003519FF1F3819FF1F3419FF1F3C19FF1FB5
:10425000CC18FF1F054A064B10781B78C0B2DBB2A2
:10426000984238BF4030C01A704700BF4419FF1F42
:104270004519FF1F30B42B4B1A7994061FD52A48D5
:10428000DA790378294901333F2B0978C8BF002325
:104290008B42D2B203D0264CD9B2E2540170254AE7
:1042A000116861B1244A1278D2B2934236BFC2F18A
:1042B00040029B1A9B18272BC4BF01230B70194A7D
:1042C000D378DBB2180611D45A060DD5154B1B79DD
:1042D0005B0609D5194B1A491B6800220A7003B105
:1042E0001A70104B2C22DA7030BC70471179090615
:1042F000EAD5144910480C780178C9B28C420DD027
:104300004A1C272A84BF00210A460F4D054C98BF3E
:10431000D1B2AA5CD2B2E2710170D5E76C21D17042
:10432000D2E700BF00A00E404419FF1F4519FF1F30
:104330007019FF1F4019FF1FB119FF1FB419FF1F8C
:10434000B019FF1FB819FF1F4819FF1F054A064B78
:1043500010781B78C0B2DBB2984238BF4030C01A28
:10436000704700BFC019FF1FC119FF1F30B42C4B8D
:104370005A6894021FD52B48DA6803782A4901331A
:104380003F2B0978C8BF00238B4204D0274CD2B200
:10439000D9B2E2540170264A116861B1254A1278F7
:1043A000D2B2934236BFC2F140029B1A9B18272B10
:1043B000C4BF01230B701A4A9368180202D55268D1
:1043C000110211D45A020DD5154B5B685B0209D559
:1043D000194B1A491B6800220A7003B11A70184B56
:1043E00000221A6030BC7047164A124910780A78C9
:1043F000D2B290420DD00132272A84BF002002465B
:10440000114D074C98BFD0B2AA5CD2B2E2600870DE
:10441000D8E70E480A4A0024012104601160D1E760
:1044200000400C40C019FF1FC119FF1FEC19FF1FEE
:10443000BC19FF1F2D1AFF1F301AFF1F2C1AFF1F58
:1044400058018843341AFF1FC419FF1F5C018843B9
:1044500010B584B072B6FDF76DFC184A184B1949B7
:104460001160702280211A701A46197013781B0689
:10447000FCD5154B1C68FDF777FC62B6134B9C42CC
:104480009CBF04EB840464002046114C01A90A225D
:10449000FFF796FC01A92046002311F8012B0133F8
:1044A0003AB10A2B20F8022FF7D11623237004B05B
:1044B00010BD5B00DBB2237004B010BD04000240ED
:1044C00000000240000007410C0002407F96980067
:1044D000880AFF1F704700BF704700BF704700BFCA
:1044E000704700BF704700BF704700BF00B510EEB7
:1044F000103A214A23F00043934283B01ADDB3F10E
:10450000FF4F04DB30EE400A03B05DF804FB684661
:1045100000F0DCF900F0030001281DD0022811D0C2
:1045200008B3DDED010A9DED000A00F01BFBB1EEC2
:10453000400AE9E70020DFED110A00F0ADFE03B00C
:104540005DF804FB0120DDED010A9DED000A00F09D
:10455000A3FEB1EE400AD7E7DDED010A9DED000AAA
:1045600000F000FBD0E70120DDED010A9DED000A1F
:1045700000F092FEC8E700BFD80F493F00000000DE
:104580002DE9F0432DED028B8BB057EC106B55EC01
:10459000114B00F061F82E4BB0EE408AF0EE608ACD
:1045A00093F90080B8F1FF3F31D022462B462046D8
:1045B000294601F0D1FB50BB32463B4630463946D6
:1045C00001F0CAFB814610BB002200232046294689
:1045D00001F090FBD8B11F4BCDF820900122CDE91E
:1045E0000267CDE904458DE80C00B8F1000F17D142
:1045F000CDE90667684600F097FEE0B1089B0BBB6B
:104600009DED060B0BB0BDEC028BBDE8F083B0EE68
:10461000480AF0EE680A0BB0BDEC028BBDE8F083EF
:10462000002200231046194601F026FAB8F1020FC5
:10463000CDE90601DED101F049FC21230360089B8E
:10464000002BDDD001F042FC089B0360D8E700BFDF
:104650009E0AFF1FF86B00002DE9F84F53EC112B59
:1046600023F0004952EA090055EC104B25D005F023
:1046700000468F4885EA060B83451EDC50421043F6
:10468000DFF844C249EAD070604511EE108A14D8B0
:10469000CB451F4610EE10AA11EE10EA10EE101ACC
:1046A00017DC28DB944226D313D1824BF60F03EBA1
:1046B000C60393ED000BBDE8F88F2046294601F0B4
:1046C000B1F802460B4601F0D7F941EC100BBDE8FA
:1046D000F88FBBF5801F12DABBF1000F40F0A78006
:1046E000BAF1000F534674480DDD5B00002B00F15A
:1046F000FF30FADC07E045EC104BBDE8F88F4FEADD
:104700002B50A0F2FF30B9F5801F0FDAB9F1000F7E
:1047100040F0A780B8F1000F4346DFF89CC109DDE7
:104720005B00002B0CF1FF3CFADC03E04FEA295C54
:10473000ACF2FF3C614B98425BDBCBF3130343F4D9
:1047400080135E4A944563DBC7F3130545F4801577
:10475000CCEB000007E052EA040313D0E30F03EBB5
:10476000420361000138CEEB01045A1B90B1714540
:1047700038BF02F1FF32002AEDDACA0F02EB430321
:104780004900EFE74B4BF60F03EBC60696ED000B27
:10479000BDE8F88F7145154638BF02F1FF35002D91
:1047A000ACBFCEEB01011D4655EA0103EAD0444AF5
:1047B000954208DCCB0F03EB450595420CF1FF3C1D
:1047C0004FEA4101F6DD3D4B9C4554DA3B4ACCEBC8
:1047D0000202142A5BDCC2F1200305FA03F3D14084
:1047E0000B43154145EA0601184641EC100BBDE8A4
:1047F000F88F3249091A1F292DDCC1F120030BFA69
:1048000001FB2AFA03F343EA0B030AFA01F198E7E2
:104810002A4CCCEB04041F2C15DCC4F1200209FA4D
:1048200004F528FA02F2154308FA04FE90E74FEA6D
:10483000CB23002B21487FF766AF5B00002B00F1F4
:10484000FF30FADC5FE71F4DCCEB050508FA05F5F4
:104850004FF0000E7CE71B4B1B1A0AFA03F30021F2
:104860006FE7DFF858C04FEAC9235B00002B0CF15B
:10487000FF3CFADC5EE7A5F580152E430CF2FF3C09
:1048800046EA0C530A4643EC102BBDE8F88F1F2A6A
:1048900007DCC2F120039D40D14045EA01033546C3
:1048A000A0E7084BCCEB030345FA03F3354699E741
:1048B000FFFFEF7F006C0000EDFBFFFF02FCFFFF3E
:1048C000FFFF0F00E2FBFFFF0000F07F70B510EE6E
:1048D000103A964A23F00044944286B05FDD944A31
:1048E000944210EE106A1BDC002BDFED927A924AA4
:1048F00024F00F0440F3D580944270EE677A5ED0C6
:104900009FED8E7A77EEC76A012377EEE67AC0EDE7
:10491000006A77EEC77AC0ED017A184606B070BD1E
:10492000874A944205465CDDB4F1FF4F3FDAE21559
:10493000863AA4EBC25307EE103AFDEEC76ADFEDEC
:10494000817AF8EEE66A37EE667ACDED036A27EEF5
:10495000277AFDEEC76AF8EEE66A37EE667ACDEDA5
:10496000046A67EE277AF5EE407AF1EE10FACDEDA3
:10497000057A40F0B780F5EE406AF1EE10FA0CBF10
:1049800001230223704901910221009103A82946C5
:1049900000F06AF9002EC0F29780034604E000227E
:1049A00080ED000A42600023184606B070BD70EE2C
:1049B000407A0023C0ED017AC0ED007AF4E7DFED24
:1049C000636A9FED637A77EEE67A012377EEC76A32
:1049D00077EEE67AC0ED006A77EEC77AC0ED017A2D
:1049E000E2E700F0A3FCDFED5B6ADFED525A9FEDDA
:1049F000537AF6EE007AE0EE267AFDEEE77A17EECD
:104A0000903AF8EEE76A1F2BB1EE666AA6EE250A29
:104A100066EE877A1DDC5049581E24F0FF0251F8DB
:104A200020108A4215D030EE677A85ED007A30EE9C
:104A3000470A002E30EE670A85ED010AB4DAB1EEBE
:104A4000477AB1EE400A85ED007A85ED010A5B42B6
:104A5000AAE730EE677AE41517EE102AC2F3C752C0
:104A6000A21A082AE1DDDFED397A9FED397AF0EEFE
:104A7000405AE6EE275A30EE650AA6EE270AF0EE17
:104A8000407AD6EE877A35EEE77A17EE102AC2F32F
:104A9000C752A41A192C3ADC85ED007AB0EE650AEB
:104AA000C5E7944270EE277A1ED09FED247A77EE08
:104AB000876A4FF0FF3377EEE67AC0ED006A77EE53
:104AC000877AC0ED017A6FE795ED007AD5ED017A2E
:104AD000B1EE477AF1EE677A434285ED007AC5ED93
:104AE000017A61E703234DE7DFED186A9FED187A3D
:104AF00077EEA67A4FF0FF3377EE876A77EEE67AA5
:104B0000C0ED006A77EE877AC0ED017A4CE79FED41
:104B1000137A9FED135AB0EE650AA6EE070A75EEFA
:104B2000C07AE6EE077AD6EE857A7CE7D80F493F61
:104B3000E3CB1640800FC93FD00FC93F4344353700
:104B4000800F494300008043906C000000443537DB
:104B500008A3852E84F9223F106C000000A3852E47
:104B600032318D2410EE103A23F00043B3F1485F48
:104B70002CDAFDEEC07A17EE903A002B60D020EED2
:104B8000007ADFED314A9FED315ADFED315A9FED6A
:104B9000316ADFED317ADFED316AA7EE245AE7EEB4
:104BA000055AA7EE256AE7EE067AE7EE276A66EE73
:104BB000876A60EEC00AB6EE006AE7EE260AF7EEF4
:104BC000007AD7EE060A37EEE00A704720EE007A48
:104BD000DFED1D4A9FED1D5ADFED1D5A9FED1D6A49
:104BE000DFED1D7ADFED1D6A1D4AA7EE245A9342C0
:104BF000E7EE055AA7EE256AE7EE067AE7EE276AA2
:104C000066EE876AD5DD174A934214DC03F17F43D1
:104C100007EE903AB7EE006A36EE676A60EEC00AB9
:104C2000F6EE005AE7EE260AD7EE257A77EEE07A1E
:104C300036EE670A7047B6EE076AF5EE027AEDE7E0
:104C4000B7EE000A704700BF4ED747ADF6740F317C
:104C50007CF293B4010DD037610BB6BAABAA2A3DF2
:104C60009999993E0000483F2DE9F04F2DED048BB6
:104C7000D7B05F1EA44C649D0193D31E48BF131D83
:104C800054F82560DB1023EAE37303F1010A8B4635
:104C9000F11902938146A2EBCA0AA3EB070314D4CD
:104CA0001944659801311AAA002BAABF50F8234075
:104CB000DFED967A07EE904A03F10103A8BFF8EE04
:104CC000E77A8B42E2EC017AEED1002EC0F2D48278
:104CD000019B42A806F1010E9C0000EB8E0E09EB31
:104CE00004013D46002FC0F2BF811AAB03EB8502E1
:104CF000DFED867A04324B46F3EC016A32ED017A3D
:104D00008B42E6EE877AF7D1E0EC017A704505F147
:104D10000105E7D106F18043023B9B0006AA03F19F
:104D20000408DFED7C8A9FED7A8ACDF810B0134439
:104D30004C4490440393354656AB03EB8503002D5A
:104D400013ED140A19DD42A901EB850305AA60EEF3
:104D5000287AB0EE407AFDEEE77A73ED016AF8EE5C
:104D6000E77A8B42A7EEC87A37EEA60ABDEEC77A7D
:104D700017EE100A42F8040FE9D1504600F026FB66
:104D8000B0EE409AB4EE000A29EE000A00F0D6FA1E
:104D9000F2EE007AA0EE679ABAF1000FFDEEC97A42
:104DA00017EE90BAF8EEE77A39EE679A40F3418150
:104DB00005F1FF3E06ABCAF1080253F82E3043FA64
:104DC00002F000FA02F206A99B1ACAF1070241F8A2
:104DD0002E30834443FA02F1002937DD002D0BF118
:104DE000010B40F32482002210460DF1140E8C4674
:104DF00008E0C3F5807113B1CEF800100120013234
:104E000095420CDD5EF8043F0028F2D00132C3F178
:104E1000FF039542CEF800304FF00100F2DC61460E
:104E2000BAF1000F10DDBAF1010F00F00981BAF1FB
:104E3000020F09D16A1E06AB0DF1180E53F822308D
:104E400003F03F034EF82230022965D0B5EE409AB8
:104E5000F1EE10FA72D105F1FF3E76450FDC05F157
:104E60008042013A06AB03EB8202002052F804397B
:104E7000424540EA0300F9D1002840F00C81731E3E
:104E800006AA52F82330002B40F0CE81039B4FF04E
:104E9000010E53F804290EF1010E002AF9D0AE4498
:104EA0006B1C73452DDC029A9818019A00F1804022
:104EB00051190EEB020C659A013802EB80001AAA18
:104EC00002EB810102EB8C0C42AA02EB830550F845
:104ED000043F07EE903AF8EEE77A002FE1EC017A12
:104EE000DFED0A7A09DB4B460A46F3EC016A32ED44
:104EF000017AA342E6EE877AF7D16145E5EC017AC3
:104F0000E5D1754618E700BFA86F0000000000005B
:104F1000000080430000803BB7EE000A30EE499A63
:104F2000002893D05046059100F050FA39EE409A8F
:104F30000599B5EE409AF1EE10FA8CD0B0EE490A20
:104F4000CAF1000009EE90BA8846DDF810B000F012
:104F50003DFA1FED117AB4EEC70AF1EE10FAC0F275
:104F600071815FED147A60EE277A06A9FDEEE77A8B
:104F70006B1CF8EEE77A0AF1080AA7EEC70AFDEE05
:104F8000E77ABDEEC00A10EE102A41F8252017EE90
:104F9000902A41F823205046B7EE000A019300F012
:104FA00015FA019B002BC0F259819F0042AC06AA62
:104FB000381D04EB070E1FED297A10440EF1040290
:104FC00070ED017AF8EEE77A67EE807A20EE070A54
:104FD00062ED017AA242F3D10DF5827C0025002E0C
:104FE000C0F21481A9489FEDAA7ADFEDAA7A714632
:104FF000002204E0954209DB043090ED007AF1ECE8
:10500000016A01329642E6EE877AF3DAAEF1040ED7
:1050100056AA02EB8502F44542ED287A05F1010516
:10502000DDD1649A032A00F2AE80DFE802F0DCB53D
:10503000B55010D16B1E06AA52F823100912CBE608
:105040006A1E06AB0DF1180E53F8223003F07F03F1
:105050004EF82230F8E6F6EE007AB4EEE79AF1EE7A
:1050600010FA0BDA0021F1E6DFED8A7AE0EC017A42
:10507000704505F101057FF435AE4BE6002D0BF1CF
:10508000010BC8BF02213FF7AEAEF7EE007A37EE54
:10509000C99A0221DAE606AA09EE90BA52F82E2041
:1050A000DDF810B073468846AAF1080A002A7FF49A
:1050B00072AF0EF18042013A06A901EB820252F86A
:1050C0000419013BAAF1080A0029F8D063E7002B74
:1050D00040F3C18003F18042013A900056A9CD19F6
:1050E000041D2EA9083015ED287A0C4408442FAD74
:1050F00074ED017A77EE876A77EEE67A77EE877A53
:10510000B0EE667A60ED017AA842C4ED006AEFD194
:10511000012B40F3A080920056AB1F4402F108001F
:105120002EAB1844043217ED287A134430AC0246F3
:1051300073ED017A77EE276A77EEE67A77EE877A73
:10514000B0EE667A62ED017A9442C3ED006AEFD167
:10515000DFED507A30ED017A844277EE877AF9D12B
:105160004346002B65D0DDED2E6A9DED2F7AF1EEE2
:10517000677AF1EE666AB1EE477ACBED027ACBED53
:10518000006A8BED017A19EE903A03F0070057B0F0
:10519000BDEC048BBDE8F08F3A1D2EA8DFED3D7A03
:1051A000024432ED017A824277EE877AF9D14246A3
:1051B0007AB3DDED2E6AB1EE677A002B76EEE77AF0
:1051C0008BED007A0ADD2FA80122B0EC017A0132C2
:1051D000934277EE877AF8DA43460BB1F1EE677ABD
:1051E000CBED017ACFE756AA3A44DFED2A7A9C3A12
:1051F00032ED017A013B591C77EE877AF8D14346AC
:105200000BB1F1EE677ACBED007ABCE7DFED217AE6
:10521000FCE69DED2E7ACBED007A002B77EE677AD7
:10522000D1DCCBED017AAEE74FF0010E37E600207E
:10523000F6E52E9A2F9BCBED027ACBF80020CBF827
:105240000430A0E7BDEEC00A06A910EE102A2B46D6
:1052500041F825209FE6DFED0F7A81E7649A032A63
:1052600091D801A151F822F0855200007F52000030
:105270007F52000057520000019B9C004AE5DFED81
:10528000057A94E7DFED037AB9E700BFB46F000059
:105290000000C93F0000000010EE103A23F0004368
:1052A000B3F1485F04DAFDEEC07A17EE903A23B30B
:1052B00060EE007A9FED155ADFED155A9FED156AE5
:1052C000DFED156A9FED157AE7EE855A20EE275A35
:1052D000A7EEA56AE7EE866AA7EEA67A70B127EE7A
:1052E000457AF6EE006AA0EEA67ADFED0D6AD7EEFB
:1052F000870AE5EE260A30EE600A7047DFED096A9C
:10530000E7EE876AA5EE260A704700BFD3C92E2FA5
:10531000342FD7B21BEF3836010D50B98988083CBD
:10532000ABAA2A3EABAA2ABE0020704710EE103A64
:1053300023F0004300EE103A704700BF10EE102A31
:1053400022F00041CB0D7F3B162B17DC002B10EE1B
:10535000100A19DB1A4919410A4222D0DFED197AE5
:1053600070EE277AF5EEC07AF1EE10FA19DD002A18
:1053700018DB20EA010300EE103A7047B1F1FF4F4D
:105380000FD330EE000A7047DFED0E7A70EE277A09
:10539000F5EEC07AF1EE10FA03DD002A08DB9FED8E
:1053A0000A0A70474FF4000242FA03F31844E0E798
:1053B0000029FFEE007A18BFB0EE670A704700BF01
:1053C000FFFF7F00CAF249710000000008B510EE2F
:1053D000103A33F000422DED028B11D0B2F1FF4FA5
:1053E00011D2B2F5000F13D3D20D0244FE2A2EDCE7
:1053F000002A1ADD23F0FF4343EAC25300EE103ABD
:10540000BDEC028B08BDBDEC028B30EE000A08BD7E
:105410001D4BDFED1E7A984220EE270A22DB10EEAC
:10542000103AC3F3C752193ADFE712F1160F1EDA2A
:105430004CF2503398420ADC9FED158AF0EE400A98
:10544000B0EE480A00F02AF820EE080AD8E79FEDEF
:10545000118AF0EE400AB0EE480A00F01FF820EE84
:10546000080ACDE7DFED0A0A20EE200AC8E7193264
:1054700023F0FF4343EAC253DFED077A00EE103A10
:1054800020EE270ABCE700BFB03CFFFF0000004C45
:105490006042A20DCAF249710000003310EE103ACA
:1054A00023F0004210EE903A03F00043134300EE65
:1054B000103A704781F0004102E000BF83F00043E2
:1054C00030B54FEA41044FEA430594EA050F08BF9F
:1054D00090EA020F1FBF54EA000C55EA020C7FEA63
:1054E000645C7FEA655C00F0E2804FEA5454D4EBE0
:1054F0005555B8BF6D420CDD2C4480EA020281EAAA
:10550000030382EA000083EA010180EA020281EAE1
:105510000303362D88BF30BD11F0004F4FEA013133
:105520004FF4801C4CEA113102D0404261EB410142
:1055300013F0004F4FEA03334CEA133302D05242C8
:1055400063EB430394EA050F00F0A780A4F1010484
:10555000D5F1200E0DDB02FA0EFC22FA05F28018BE
:1055600041F1000103FA0EF2801843FA05F35941A4
:105570000EE0A5F120050EF1200E012A03FA0EFC23
:1055800028BF4CF0020C43FA05F3C01851EBE3714D
:1055900001F0004507D54FF0000EDCF1000C7EEB6A
:1055A00000006EEB0101B1F5801F1BD3B1F5001FA8
:1055B0000CD349085FEA30004FEA3C0C04F10104C7
:1055C0004FEA445212F5800F80F09A80BCF1004FF0
:1055D00008BF5FEA500C50F1000041EB045141EA72
:1055E000050130BD5FEA4C0C404141EB010111F473
:1055F000801FA4F10104E9D191F0000F04BF01461E
:105600000020B1FA81F308BF2033A3F10B03B3F1FB
:1056100020020CDA0C3208DD02F1140CC2F10C028B
:1056200001FA0CF021FA02F10CE002F11402D8BFE9
:10563000C2F1200C01FA02F120FA0CFCDCBF41EAB5
:105640000C019040E41AA2BF01EB0451294330BD84
:105650006FEA04041F3C1CDA0C340EDC04F1140461
:10566000C4F1200220FA04F001FA02F340EA030038
:1056700021FA04F345EA030130BDC4F10C04C4F17E
:10568000200220FA02F001FA04F340EA030029465E
:1056900030BD21FA04F0294630BD94F0000F83F4A8
:1056A000801306BF81F480110134013D4EE77FEA8B
:1056B000645C18BF7FEA655C29D094EA050F08BFD7
:1056C00090EA020F05D054EA000C04BF19461046B8
:1056D00030BD91EA030F1EBF0021002030BD5FEAFC
:1056E000545C05D14000494128BF41F0004130BD24
:1056F00014F580043CBF01F5801130BD01F0004578
:1057000045F0FE4141F470014FF0000030BD7FEAEA
:10571000645C1ABF194610467FEA655C1CBF0B46E5
:10572000024650EA013406BF52EA033591EA030FFC
:1057300041F4002130BD00BF90F0000F04BF0021F4
:10574000704730B54FF4806404F132044FF0000527
:105750004FF0000150E700BF90F0000F04BF0021A0
:10576000704730B54FF4806404F1320410F0004506
:1057700048BF40424FF000013EE700BF42004FEA01
:10578000E2014FEA31014FEA02701FBF12F07F437E
:1057900093F07F4F81F06051704792F0000F14BF7B
:1057A00093F07F4F704730B54FF4607401F00045BF
:1057B00021F0004120E700BF50EA010208BF704716
:1057C00030B54FF000050AE050EA010208BF70470B
:1057D00030B511F0004502D5404261EB41014FF474
:1057E000806404F132045FEA915C3FF4DCAE4FF078
:1057F00003025FEADC0C18BF03325FEADC0C18BF5F
:10580000033202EBDC02C2F1200300FA03FC20FAAF
:1058100002F001FA03FE40EA0E0021FA02F11444FC
:10582000C1E600BF70B54FF0FF0C4CF4E06C1CEA11
:1058300011541DBF1CEA135594EA0C0F95EA0C0F86
:1058400000F0DEF82C4481EA030621EA4C5123EAF9
:105850004C5350EA013518BF52EA033541F4801128
:1058600043F4801338D0A0FB02CE4FF00005E1FBDB
:1058700002E506F00042E0FB03E54FF00006E1FB25
:1058800003569CF0000F18BF4EF0010EA4F1FF0468
:10589000B6F5007F64F5407404D25FEA4E0E6D41A8
:1058A00046EB060642EAC62141EA55514FEAC520B9
:1058B00040EA5E504FEACE2EB4F1FD0C88BFBCF535
:1058C000E06F1ED8BEF1004F08BF5FEA500E50F1E6
:1058D000000041EB045170BD06F0004646EA0101AC
:1058E00040EA020081EA0301B4EB5C04C2BFD4EBDE
:1058F0000C0541EA045170BD41F480114FF0000ED7
:10590000013C00F3AB8014F1360FDEBF002001F044
:10591000004170BDC4F10004203C35DA0C341BDCBE
:1059200004F11404C4F1200500FA05F320FA04F090
:1059300001FA05F240EA020001F0004221F00041C4
:1059400010EBD37021FA04F642EB06015EEA430E37
:1059500008BF20EAD37070BDC4F10C04C4F1200567
:1059600000FA04F320FA05F001FA04F240EA02001A
:1059700001F0004110EBD37041F100015EEA430EEB
:1059800008BF20EAD37070BDC4F1200500FA05F20B
:105990004EEA020E20FA04F301FA05F243EA02038A
:1059A00021FA04F001F0004121FA04F220EA020099
:1059B00000EBD3705EEA430E08BF20EAD37070BDDF
:1059C00094F0000F0FD101F00046400041EB0101BF
:1059D00011F4801F08BF013CF7D041EA060195F0A1
:1059E000000F18BF704703F00046520043EB03035B
:1059F00013F4801F08BF013DF7D043EA0603704748
:105A000094EA0C0F0CEA135518BF95EA0C0F0CD052
:105A100050EA410618BF52EA4306D1D181EA030198
:105A200001F000414FF0000070BD50EA410606BF92
:105A30001046194652EA430619D094EA0C0F02D1D7
:105A400050EA013613D195EA0C0F05D152EA03361C
:105A50001CBF104619460AD181EA030101F000413A
:105A600041F0FE4141F470014FF0000070BD41F083
:105A7000FE4141F4780170BD70B54FF0FF0C4CF45D
:105A8000E06C1CEA11541DBF1CEA135594EA0C0F7C
:105A900095EA0C0F00F0A7F8A4EB050481EA030EC9
:105AA00052EA03354FEA013100F088804FEA0333B0
:105AB0004FF0805545EA131343EA12634FEA02227E
:105AC00045EA111545EA10654FEA00260EF000413F
:105AD0009D4208BF964244F1FD0404F5407402D291
